:03000000020103F7
:0C010300787FE4F6D8FD75811B02014AEC
:0602C900010F000112000C
:0802C1001202A812021280FBD8
:10021200E4F51575901FE590541F641F6015E59075
:10022200541F641F6006E590541FF5167D3FAF16FC
:1002320002018F75130075141EE4F515AF148F902B
:10024200E590541F65147002E513600FE590541F8A
:10025200F5168F1785151105108006AF148F168FAE
:1002620017AD17AF1612018FE51425E0FFEF440119
:10027200751300541FF5140515E515C3940340BC0E
:070282007F327E0012028AA8
:010289002252
:10018F00ED24E5602E24FE601824DE603C242170EF
:10019F0040E511703CEF640E6032BF1602802D8077
:1001AF0022E5116401702AEF640D6003BF15028010
:1001BF001B8010E51164027018EF640B6003BF130E
:1001CF00028009EF6DF5188008BF0F05EF641FF56A
:1001DF0018E51865195518FE8518196009E5196095
:1001EF0005751A018016EE700EE519600AE510B458
:1001FF000A05751B018005E4F51AF51BAB1BAD1A3B
:03020F00020003E7
:10000300BF0F18BD0115050EE50EB40104C2A6808D
:1000130002D2A6E50EB40203E4F50EBF0E05ED64AD
:10002300016006BF0E1BBB0118E4F5100508E508C7
:10003300B40104C2A08002D2A0E508B40203E4F52F
:1000430008BF1605ED64016006BF161BBB0118E46B
:10005300F5100509E509B40104C2A18002D2A1E5A6
:1000630009B40203E4F509BF0D05ED64016006BFA1
:100073000D1BBB0118E4F510050AE50AB40104C21F
:10008300A28002D2A2E50AB40203E4F50ABF150571
:10009300ED64016006BF151BBB0118E4F510050BE9
:1000A300E50BB40104C2A38002D2A3E50BB402039F
:1000B300E4F50BBF0B05ED64016006BF0B1BBB0131
:1000C30018E4F510050CE50CB40104C2A48002D2B7
:1000D300A4E50CB40203E4F50CBF1305ED64016061
:1000E30006BF131BBB0118E4F510050DE50DB401A4
:0F00F30004C2A58002D2A5E50DB40203E4F50D09
:0101020022DA
:1002A800D290D291D292D293D294D2A0D2A1D2A2F9
:0902B800D2A2D2A4D2A5D2A62242
:10028A00D3EF9400EE940040147D6E7C00ED1D7057
:0D029A00011CED4C70F7EF1F70E61E80E3B5
:0102A7002234
:10010F000202C1E493A3F8E493A34003F68001F243
:10011F0008DFF48029E493A3F85407240CC8C333F1
:10012F00C4540F4420C8834004F456800146F6DFC0
:10013F00E4800B01020408102040809002C9E47E85
:10014F00019360BCA3FF543F30E509541FFEE493B5
:10015F00A360010ECF54C025E060A840B8E493A37C
:10016F00FAE493A3F8E493A3C8C582C8CAC583CAA7
:10017F00F0A3C8C582C8CAC583CADFE9DEE780BE5F
:0102CF00002E
:00000001FF
